{
  "contractName": "ERC165",
  "abi": [
    {
      "inputs": [],
      "stateMutability": "nonpayable",
      "type": "constructor"
    },
    {
      "inputs": [
        {
          "internalType": "bytes4",
          "name": "interfaceId",
          "type": "bytes4"
        }
      ],
      "name": "supportsInterface",
      "outputs": [
        {
          "internalType": "bool",
          "name": "",
          "type": "bool"
        }
      ],
      "stateMutability": "view",
      "type": "function"
    }
  ],
  "bytecode": "0x608060405234801561001057600080fd5b5061005560405180807f737570706f727473496e746572666163652862797465733429000000000000008152506019019050604051809103902061005a60201b60201c565b610162565b63ffffffff60e01b817bffffffffffffffffffffffffffffffffffffffffffffffffffffffff191614156100f6576040517f08c379a00000000000000000000000000000000000000000000000000000000081526004018080602001828103825260198152602001807f496e76616c696420696e7465726661636520726571756573740000000000000081525060200191505060405180910390fd5b6001600080837bffffffffffffffffffffffffffffffffffffffffffffffffffffffff19167bffffffffffffffffffffffffffffffffffffffffffffffffffffffff1916815260200190815260200160002060006101000a81548160ff02191690831515021790555050565b61012c806101716000396000f3fe6080604052348015600f57600080fd5b506004361060285760003560e01c806301ffc9a714602d575b600080fd5b607560048036036020811015604157600080fd5b8101908080357bffffffffffffffffffffffffffffffffffffffffffffffffffffffff19169060200190929190505050608f565b604051808215151515815260200191505060405180910390f35b6000806000837bffffffffffffffffffffffffffffffffffffffffffffffffffffffff19167bffffffffffffffffffffffffffffffffffffffffffffffffffffffff1916815260200190815260200160002060009054906101000a900460ff16905091905056fea2646970667358221220de86e4bb80c0dcd05ab2c703814d545bb7854f9f24eede2fb90d4d69cf14294364736f6c63430006000033",
  "source": "// SPDX-License-Identifier: MIT\npragma solidity >=0.4.22 <0.9.0;\n\nimport './interfaces/IERC165.sol';\n\ncontract ERC165 is IERC165{\n\n        mapping(bytes4=>bool) private _supported_interfaces;\n\n        constructor() public{\n            _registerInterface(bytes4(keccak256('supportsInterface(bytes4)')));\n        }\n\n        // Get function\n        function supportsInterface(bytes4 interfaceId) external view override returns (bool){\n            return _supported_interfaces[interfaceId];\n        }\n\n        // Set function\n        function _registerInterface(bytes4 interfaceId) internal{\n            require(interfaceId!=0xffffffff,\"Invalid interface request\");\n            _supported_interfaces[interfaceId]=true;\n        }\n\n}",
  "sourcePath": "/Users/zaidsallam/Desktop/daaps_projects/udemy_nft_course/nft-marketplace-starter-kit-main/contracts/ERC165.sol",
  "compiler": {
    "name": "solc",
    "version": "0.6.0+commit.26b70077.Emscripten.clang"
  },
  "schemaVersion": "3.4.6",
  "updatedAt": "2022-04-25T20:03:12.821Z",
  "devdoc": {
    "methods": {}
  },
  "userdoc": {
    "methods": {}
  }
}