{
  "contractName": "ERC721",
  "abi": [
    {
      "inputs": [],
      "stateMutability": "nonpayable",
      "type": "constructor"
    },
    {
      "anonymous": false,
      "inputs": [
        {
          "indexed": true,
          "internalType": "address",
          "name": "_owner",
          "type": "address"
        },
        {
          "indexed": true,
          "internalType": "address",
          "name": "_approved",
          "type": "address"
        },
        {
          "indexed": true,
          "internalType": "uint256",
          "name": "_tokenId",
          "type": "uint256"
        }
      ],
      "name": "Approval",
      "type": "event"
    },
    {
      "anonymous": false,
      "inputs": [
        {
          "indexed": true,
          "internalType": "address",
          "name": "_owner",
          "type": "address"
        },
        {
          "indexed": true,
          "internalType": "address",
          "name": "_operator",
          "type": "address"
        },
        {
          "indexed": false,
          "internalType": "bool",
          "name": "_approved",
          "type": "bool"
        }
      ],
      "name": "ApprovalForAll",
      "type": "event"
    },
    {
      "anonymous": false,
      "inputs": [
        {
          "indexed": true,
          "internalType": "address",
          "name": "_from",
          "type": "address"
        },
        {
          "indexed": true,
          "internalType": "address",
          "name": "_to",
          "type": "address"
        },
        {
          "indexed": true,
          "internalType": "uint256",
          "name": "_tokenId",
          "type": "uint256"
        }
      ],
      "name": "Transfer",
      "type": "event"
    },
    {
      "inputs": [
        {
          "internalType": "bytes4",
          "name": "interfaceId",
          "type": "bytes4"
        }
      ],
      "name": "supportsInterface",
      "outputs": [
        {
          "internalType": "bool",
          "name": "",
          "type": "bool"
        }
      ],
      "stateMutability": "view",
      "type": "function"
    },
    {
      "inputs": [
        {
          "internalType": "address",
          "name": "owner",
          "type": "address"
        }
      ],
      "name": "balanceOf",
      "outputs": [
        {
          "internalType": "uint256",
          "name": "",
          "type": "uint256"
        }
      ],
      "stateMutability": "view",
      "type": "function"
    },
    {
      "inputs": [
        {
          "internalType": "uint256",
          "name": "token",
          "type": "uint256"
        }
      ],
      "name": "ownerOf",
      "outputs": [
        {
          "internalType": "address",
          "name": "",
          "type": "address"
        }
      ],
      "stateMutability": "view",
      "type": "function"
    },
    {
      "inputs": [
        {
          "internalType": "address",
          "name": "_from",
          "type": "address"
        },
        {
          "internalType": "address",
          "name": "_to",
          "type": "address"
        },
        {
          "internalType": "uint256",
          "name": "token",
          "type": "uint256"
        }
      ],
      "name": "transferFrom",
      "outputs": [],
      "stateMutability": "nonpayable",
      "type": "function"
    }
  ],
  "bytecode": "0x608060405234801561001057600080fd5b5061005560405180807f737570706f727473496e746572666163652862797465733429000000000000008152506019019050604051809103902061010c60201b60201c565b61010760405180807f7472616e7366657246726f6d28627974657334290000000000000000000000008152506014019050604051809103902060405180807f6f776e65724f6628627974657334290000000000000000000000000000000000815250600f019050604051809103902060405180807f62616c616e63654f66286279746573342900000000000000000000000000000081525060110190506040518091039020181861010c60201b60201c565b610214565b63ffffffff60e01b817bffffffffffffffffffffffffffffffffffffffffffffffffffffffff191614156101a8576040517f08c379a00000000000000000000000000000000000000000000000000000000081526004018080602001828103825260198152602001807f496e76616c696420696e7465726661636520726571756573740000000000000081525060200191505060405180910390fd5b6001600080837bffffffffffffffffffffffffffffffffffffffffffffffffffffffff19167bffffffffffffffffffffffffffffffffffffffffffffffffffffffff1916815260200190815260200160002060006101000a81548160ff02191690831515021790555050565b61066d806102236000396000f3fe608060405234801561001057600080fd5b506004361061004c5760003560e01c806301ffc9a71461005157806323b872dd146100b65780636352211e1461012457806370a0823114610192575b600080fd5b61009c6004803603602081101561006757600080fd5b8101908080357bffffffffffffffffffffffffffffffffffffffffffffffffffffffff191690602001909291905050506101ea565b604051808215151515815260200191505060405180910390f35b610122600480360360608110156100cc57600080fd5b81019080803573ffffffffffffffffffffffffffffffffffffffff169060200190929190803573ffffffffffffffffffffffffffffffffffffffff16906020019092919080359060200190929190505050610251565b005b6101506004803603602081101561013a57600080fd5b8101908080359060200190929190505050610261565b604051808273ffffffffffffffffffffffffffffffffffffffff1673ffffffffffffffffffffffffffffffffffffffff16815260200191505060405180910390f35b6101d4600480360360208110156101a857600080fd5b81019080803573ffffffffffffffffffffffffffffffffffffffff16906020019092919050505061029e565b6040518082815260200191505060405180910390f35b6000806000837bffffffffffffffffffffffffffffffffffffffffffffffffffffffff19167bffffffffffffffffffffffffffffffffffffffffffffffffffffffff1916815260200190815260200160002060009054906101000a900460ff169050919050565b61025c83838361036c565b505050565b60006001600083815260200190815260200160002060009054906101000a900473ffffffffffffffffffffffffffffffffffffffff169050919050565b60008073ffffffffffffffffffffffffffffffffffffffff168273ffffffffffffffffffffffffffffffffffffffff161415610325576040517f08c379a00000000000000000000000000000000000000000000000000000000081526004018080602001828103825260268152602001806105ea6026913960400191505060405180910390fd5b600260008373ffffffffffffffffffffffffffffffffffffffff1673ffffffffffffffffffffffffffffffffffffffff168152602001908152602001600020549050919050565b600073ffffffffffffffffffffffffffffffffffffffff168273ffffffffffffffffffffffffffffffffffffffff16141561040f576040517f08c379a00000000000000000000000000000000000000000000000000000000081526004018080602001828103825260148152602001807f41646472657373206e6f7420636f72726563742100000000000000000000000081525060200191505060405180910390fd5b8273ffffffffffffffffffffffffffffffffffffffff1661042f82610261565b73ffffffffffffffffffffffffffffffffffffffff161461049b576040517f08c379a00000000000000000000000000000000000000000000000000000000081526004018080602001828103825260288152602001806106106028913960400191505060405180910390fd5b816001600083815260200190815260200160002060006101000a81548173ffffffffffffffffffffffffffffffffffffffff021916908373ffffffffffffffffffffffffffffffffffffffff1602179055506001600260008473ffffffffffffffffffffffffffffffffffffffff1673ffffffffffffffffffffffffffffffffffffffff168152602001908152602001600020600082825401925050819055506001600260008573ffffffffffffffffffffffffffffffffffffffff1673ffffffffffffffffffffffffffffffffffffffff16815260200190815260200160002060008282540392505081905550808273ffffffffffffffffffffffffffffffffffffffff168473ffffffffffffffffffffffffffffffffffffffff167fddf252ad1be2c89b69c2b068fc378daa952ba7f163c4a11628f55a4df523b3ef60405160405180910390a450505056fe4572726f723a2045524337323120616464726573732063616e2774206265207a65726f212120546865205f66726f6d206164647265737320646f65736e2774206f776e2074686520746f6b656e21a264697066735822122042bed3c5697358702202b33909c0a2a2d61298649194a669dfe68e3e1a1fbf6464736f6c63430006000033",
  "source": "// SPDX-License-Identifier: MIT\npragma solidity >=0.4.22 <0.9.0;\nimport './ERC165.sol';\nimport './interfaces/IERC721.sol';\n\n/*\n    Steps:\n    1. Nft to point to an address (nft=>address)\n    2. Keep track of token ids (tokensIds[])\n    3. keep track of token owner address to token ids (address=>tokenID??)\n    4. keep track of how many tokens an owner address has (address => []tokens)\n    5. create event that emits (transfer log - contract address where it is being minted to )\n    */\n\ncontract ERC721 is ERC165, IERC721 {\n\n\n      constructor() public{\n            _registerInterface( \n                bytes4(keccak256('balanceOf(bytes4)')) ^ \n                bytes4(keccak256('ownerOf(bytes4)')) ^\n                bytes4(keccak256('transferFrom(bytes4)')) \n             );\n        }\n\n\n    /* mapping from token id to the owner \n        ([{\"address1\":\"token1\"}, {\"address2\":\"token3\"}.......])\n    */\n    mapping(uint256 => address) private _tokenOwner;\n\n\n    /* mapping from owner to number of owned tokens \n        ([{\"address1\":5}, {\"address2\":2}.......])\n    */ \n    mapping(address => uint256) private _OwnedTokensCount;\n\n\n    // function to check if the token exists and owned by address\n    function _exists(uint256 tokenId) internal view returns (bool) {\n        address owner = _tokenOwner[tokenId];\n        return owner != address(0);\n    }\n\n\n    function _mint(address to, uint256 token) internal virtual {\n        // 1. making sure that addres isn't zero\n        // 2. making sure that token isn't already owned/exists\n        require(\n            to != address(0),\n            \"ERC721 Error: you're minting to the zero address\"\n        );\n        require(!_exists(token), \"Token already exists!!!\");\n    \n        // 1. Assigning the token to the owner\n        // 2. increasing number of owned tokens for owner\n        _tokenOwner[token] = to;\n        _OwnedTokensCount[to] += 1;\n\n        // Here logging the transaction\n        // address(0) here means the contract address\n        emit Transfer(address(0),to,token);\n    }\n\n    // returns How many nfts the owner has?\n    function balanceOf(address owner) public override view returns (uint){\n        require(owner != address(0),\"Error: ERC721 address can't be zero!! \");\n        return _OwnedTokensCount[owner];\n    }\n\n    function ownerOf(uint token) public override view returns (address){\n        return _tokenOwner[token];\n    }\n\n\n\n    // 1. make sure the receiver address is correct\n    // 2. make sure the sender owns the token\n    // 3. update balance of sender\n    // 4. update balance of receiver\n    // 5. Assign the token to the new address(receiver)\n    function _transferFrom(address _from ,address _to, uint token) internal{\n        require(_to!=address(0),\"Address not correct!\");\n        require(ownerOf(token)== _from,\"The _from address doesn't own the token!\");\n\n        _tokenOwner[token]=_to;\n        \n        _OwnedTokensCount[_to] += 1;\n        _OwnedTokensCount[_from] -= 1;\n\n    emit Transfer(_from, _to, token);\n    }\n\n\n    function transferFrom(address _from ,address _to, uint token) override public  {\n        _transferFrom(_from, _to,token);\n    }\n\n}\n",
  "sourcePath": "/Users/zaidsallam/Desktop/daaps_projects/udemy_nft_course/nft-marketplace-starter-kit-main/contracts/ERC721.sol",
  "compiler": {
    "name": "solc",
    "version": "0.6.0+commit.26b70077.Emscripten.clang"
  },
  "schemaVersion": "3.4.6",
  "updatedAt": "2022-04-25T20:20:09.659Z",
  "devdoc": {
    "methods": {}
  },
  "userdoc": {
    "methods": {}
  }
}