{
  "contractName": "ERC721Enumerable",
  "abi": [
    {
      "inputs": [],
      "stateMutability": "nonpayable",
      "type": "constructor"
    },
    {
      "anonymous": false,
      "inputs": [
        {
          "indexed": true,
          "internalType": "address",
          "name": "_owner",
          "type": "address"
        },
        {
          "indexed": true,
          "internalType": "address",
          "name": "_approved",
          "type": "address"
        },
        {
          "indexed": true,
          "internalType": "uint256",
          "name": "_tokenId",
          "type": "uint256"
        }
      ],
      "name": "Approval",
      "type": "event"
    },
    {
      "anonymous": false,
      "inputs": [
        {
          "indexed": true,
          "internalType": "address",
          "name": "_owner",
          "type": "address"
        },
        {
          "indexed": true,
          "internalType": "address",
          "name": "_operator",
          "type": "address"
        },
        {
          "indexed": false,
          "internalType": "bool",
          "name": "_approved",
          "type": "bool"
        }
      ],
      "name": "ApprovalForAll",
      "type": "event"
    },
    {
      "anonymous": false,
      "inputs": [
        {
          "indexed": true,
          "internalType": "address",
          "name": "_from",
          "type": "address"
        },
        {
          "indexed": true,
          "internalType": "address",
          "name": "_to",
          "type": "address"
        },
        {
          "indexed": true,
          "internalType": "uint256",
          "name": "_tokenId",
          "type": "uint256"
        }
      ],
      "name": "Transfer",
      "type": "event"
    },
    {
      "inputs": [
        {
          "internalType": "address",
          "name": "owner",
          "type": "address"
        }
      ],
      "name": "balanceOf",
      "outputs": [
        {
          "internalType": "uint256",
          "name": "",
          "type": "uint256"
        }
      ],
      "stateMutability": "view",
      "type": "function"
    },
    {
      "inputs": [
        {
          "internalType": "uint256",
          "name": "token",
          "type": "uint256"
        }
      ],
      "name": "ownerOf",
      "outputs": [
        {
          "internalType": "address",
          "name": "",
          "type": "address"
        }
      ],
      "stateMutability": "view",
      "type": "function"
    },
    {
      "inputs": [
        {
          "internalType": "bytes4",
          "name": "interfaceId",
          "type": "bytes4"
        }
      ],
      "name": "supportsInterface",
      "outputs": [
        {
          "internalType": "bool",
          "name": "",
          "type": "bool"
        }
      ],
      "stateMutability": "view",
      "type": "function"
    },
    {
      "inputs": [
        {
          "internalType": "address",
          "name": "_from",
          "type": "address"
        },
        {
          "internalType": "address",
          "name": "_to",
          "type": "address"
        },
        {
          "internalType": "uint256",
          "name": "token",
          "type": "uint256"
        }
      ],
      "name": "transferFrom",
      "outputs": [],
      "stateMutability": "nonpayable",
      "type": "function"
    },
    {
      "inputs": [
        {
          "internalType": "uint256",
          "name": "index",
          "type": "uint256"
        }
      ],
      "name": "tokenByIndex",
      "outputs": [
        {
          "internalType": "uint256",
          "name": "",
          "type": "uint256"
        }
      ],
      "stateMutability": "view",
      "type": "function"
    },
    {
      "inputs": [
        {
          "internalType": "address",
          "name": "owner",
          "type": "address"
        },
        {
          "internalType": "uint256",
          "name": "index",
          "type": "uint256"
        }
      ],
      "name": "tokenOfOwnerByIndex",
      "outputs": [
        {
          "internalType": "uint256",
          "name": "",
          "type": "uint256"
        }
      ],
      "stateMutability": "view",
      "type": "function"
    },
    {
      "inputs": [],
      "name": "totalSupply",
      "outputs": [
        {
          "internalType": "uint256",
          "name": "",
          "type": "uint256"
        }
      ],
      "stateMutability": "view",
      "type": "function"
    }
  ],
  "bytecode": "0x608060405234801561001057600080fd5b5061005560405180807f737570706f727473496e74657266616365286279746573342900000000000000815250601901905060405180910390206101be60201b60201c565b61010760405180807f7472616e7366657246726f6d28627974657334290000000000000000000000008152506014019050604051809103902060405180807f6f776e65724f6628627974657334290000000000000000000000000000000000815250600f019050604051809103902060405180807f62616c616e63654f6628627974657334290000000000000000000000000000008152506011019050604051809103902018186101be60201b60201c565b6101b960405180807f746f74616c537570706c792862797465733429000000000000000000000000008152506013019050604051809103902060405180807f746f6b656e4f664f776e65724279496e64657828627974657334290000000000815250601b019050604051809103902060405180807f746f6b656e4279496e64657828627974657334290000000000000000000000008152506014019050604051809103902018186101be60201b60201c565b6102c6565b63ffffffff60e01b817bffffffffffffffffffffffffffffffffffffffffffffffffffffffff1916141561025a576040517f08c379a00000000000000000000000000000000000000000000000000000000081526004018080602001828103825260198152602001807f496e76616c696420696e7465726661636520726571756573740000000000000081525060200191505060405180910390fd5b6001600080837bffffffffffffffffffffffffffffffffffffffffffffffffffffffff19167bffffffffffffffffffffffffffffffffffffffffffffffffffffffff1916815260200190815260200160002060006101000a81548160ff02191690831515021790555050565b6108e2806102d56000396000f3fe608060405234801561001057600080fd5b506004361061007d5760003560e01c80632f745c591161005b5780632f745c59146101735780634f6ccce7146101d55780636352211e1461021757806370a08231146102855761007d565b806301ffc9a71461008257806318160ddd146100e757806323b872dd14610105575b600080fd5b6100cd6004803603602081101561009857600080fd5b8101908080357bffffffffffffffffffffffffffffffffffffffffffffffffffffffff191690602001909291905050506102dd565b604051808215151515815260200191505060405180910390f35b6100ef610344565b6040518082815260200191505060405180910390f35b6101716004803603606081101561011b57600080fd5b81019080803573ffffffffffffffffffffffffffffffffffffffff169060200190929190803573ffffffffffffffffffffffffffffffffffffffff16906020019092919080359060200190929190505050610351565b005b6101bf6004803603604081101561018957600080fd5b81019080803573ffffffffffffffffffffffffffffffffffffffff16906020019092919080359060200190929190505050610361565b6040518082815260200191505060405180910390f35b610201600480360360208110156101eb57600080fd5b810190808035906020019092919050505061043d565b6040518082815260200191505060405180910390f35b6102436004803603602081101561022d57600080fd5b81019080803590602001909291905050506104d6565b604051808273ffffffffffffffffffffffffffffffffffffffff1673ffffffffffffffffffffffffffffffffffffffff16815260200191505060405180910390f35b6102c76004803603602081101561029b57600080fd5b81019080803573ffffffffffffffffffffffffffffffffffffffff169060200190929190505050610513565b6040518082815260200191505060405180910390f35b6000806000837bffffffffffffffffffffffffffffffffffffffffffffffffffffffff19167bffffffffffffffffffffffffffffffffffffffffffffffffffffffff1916815260200190815260200160002060009054906101000a900460ff169050919050565b6000600380549050905090565b61035c8383836105e1565b505050565b600061036c83610513565b82106103e0576040517f08c379a000000000000000000000000000000000000000000000000000000000815260040180806020018281038252601b8152602001807f4f776e657220496e646578206973206f7574206f6620626f756e64000000000081525060200191505060405180910390fd5b600560008473ffffffffffffffffffffffffffffffffffffffff1673ffffffffffffffffffffffffffffffffffffffff168152602001908152602001600020828154811061042a57fe5b9060005260206000200154905092915050565b6000610447610344565b82106104bb576040517f08c379a00000000000000000000000000000000000000000000000000000000081526004018080602001828103825260158152602001807f496e646578206973206f7574206f6620626f756e64000000000000000000000081525060200191505060405180910390fd5b60046000838152602001908152602001600020549050919050565b60006001600083815260200190815260200160002060009054906101000a900473ffffffffffffffffffffffffffffffffffffffff169050919050565b60008073ffffffffffffffffffffffffffffffffffffffff168273ffffffffffffffffffffffffffffffffffffffff16141561059a576040517f08c379a000000000000000000000000000000000000000000000000000000000815260040180806020018281038252602681526020018061085f6026913960400191505060405180910390fd5b600260008373ffffffffffffffffffffffffffffffffffffffff1673ffffffffffffffffffffffffffffffffffffffff168152602001908152602001600020549050919050565b600073ffffffffffffffffffffffffffffffffffffffff168273ffffffffffffffffffffffffffffffffffffffff161415610684576040517f08c379a00000000000000000000000000000000000000000000000000000000081526004018080602001828103825260148152602001807f41646472657373206e6f7420636f72726563742100000000000000000000000081525060200191505060405180910390fd5b8273ffffffffffffffffffffffffffffffffffffffff166106a4826104d6565b73ffffffffffffffffffffffffffffffffffffffff1614610710576040517f08c379a00000000000000000000000000000000000000000000000000000000081526004018080602001828103825260288152602001806108856028913960400191505060405180910390fd5b816001600083815260200190815260200160002060006101000a81548173ffffffffffffffffffffffffffffffffffffffff021916908373ffffffffffffffffffffffffffffffffffffffff1602179055506001600260008473ffffffffffffffffffffffffffffffffffffffff1673ffffffffffffffffffffffffffffffffffffffff168152602001908152602001600020600082825401925050819055506001600260008573ffffffffffffffffffffffffffffffffffffffff1673ffffffffffffffffffffffffffffffffffffffff16815260200190815260200160002060008282540392505081905550808273ffffffffffffffffffffffffffffffffffffffff168473ffffffffffffffffffffffffffffffffffffffff167fddf252ad1be2c89b69c2b068fc378daa952ba7f163c4a11628f55a4df523b3ef60405160405180910390a450505056fe4572726f723a2045524337323120616464726573732063616e2774206265207a65726f212120546865205f66726f6d206164647265737320646f65736e2774206f776e2074686520746f6b656e21a264697066735822122053738c0f7abeebacd8d28be4fdf8c776b03888e9ce0fb226183c90ed17ad1bb264736f6c63430006000033",
  "source": "// SPDX-License-Identifier: MIT\npragma solidity >=0.4.22 <0.9.0;\nimport \"./ERC721.sol\";\nimport './interfaces/IERC721Enumerable.sol';\n\ncontract ERC721Enumerable is IERC721Enumerable,ERC721{\n\nuint[] private _allTokens;\n\n// mapping from tokenID to position in all tokens; \nmapping(uint=>uint) private allTokensIndex;\n// mapping of owner to list of all ower token ids;\nmapping(address=>uint[]) private _ownedTokens;\n// mapping from tokenID to index of the owner token list;\nmapping(uint =>uint) private _ownedTokensIndex;\n\n\n\n  constructor() public{\n            _registerInterface( \n                bytes4(keccak256('tokenByIndex(bytes4)')) ^ \n                bytes4(keccak256('tokenOfOwnerByIndex(bytes4)')) ^\n                bytes4(keccak256('totalSupply(bytes4)')) \n             );\n        }\n\n\n\n// Overriding _mint function from ERC721.sol class\nfunction _mint(address to, uint256 token) internal override(ERC721) {\n    super._mint(to,token);\n    // Two thing to do:\n    // A. Add tokens to the owner\n    // B. Add tokens to our total supply\n    _addTokenToAllTokensEnumuration(token);\n    _addTokenTOwnerEnumuration(to, token);\n}\n\n// add tokens to _alltokens and set position of the indexes\nfunction _addTokenToAllTokensEnumuration(uint tokenId) private{\n    allTokensIndex[tokenId]=_allTokens.length;\n    _allTokens.push(tokenId);\n} \n\n\nfunction _addTokenTOwnerEnumuration(address to, uint tokenId) private{\n\n    // 1.  Set token as index with length of owned tokens of the owner\n    _ownedTokensIndex[tokenId]=_ownedTokens[to].length;\n    \n    // 2.  Add token to owner\n    _ownedTokens[to].push(tokenId); \n}\n\n\n\n\n// returns token by index\nfunction tokenByIndex(uint index) public override view returns (uint){\n    require(index < totalSupply(),\"Index is out of bound\");\n    return allTokensIndex[index];\n}\n\n// returns tokens for owner\nfunction tokenOfOwnerByIndex(address owner, uint index) public override view returns (uint){\n    require(index < balanceOf(owner),\"Owner Index is out of bound\");\n    return _ownedTokens[owner][index];\n}\n\n// Return A count of valid NFTs with token=>address\nfunction totalSupply() public override view returns (uint){\n    return _allTokens.length;\n}\n\n\n\n}",
  "sourcePath": "/Users/zaidsallam/Desktop/daaps_projects/udemy_nft_course/nft-marketplace-starter-kit-main/contracts/ERC721Enumerable.sol",
  "compiler": {
    "name": "solc",
    "version": "0.6.0+commit.26b70077.Emscripten.clang"
  },
  "schemaVersion": "3.4.6",
  "updatedAt": "2022-04-25T20:20:09.666Z",
  "devdoc": {
    "methods": {}
  },
  "userdoc": {
    "methods": {}
  }
}